{
  "contractName": "PermissionsUpgradable",
  "abi": [
    {
      "inputs": [
        {
          "name": "_guardian",
          "type": "address"
        }
      ],
      "payable": false,
      "stateMutability": "nonpayable",
      "type": "constructor"
    },
    {
      "constant": false,
      "inputs": [
        {
          "name": "_permInterface",
          "type": "address"
        },
        {
          "name": "_permImpl",
          "type": "address"
        }
      ],
      "name": "init",
      "outputs": [],
      "payable": false,
      "stateMutability": "nonpayable",
      "type": "function"
    },
    {
      "constant": false,
      "inputs": [
        {
          "name": "_updatedGuardian",
          "type": "address"
        }
      ],
      "name": "changeGuardian",
      "outputs": [],
      "payable": false,
      "stateMutability": "nonpayable",
      "type": "function"
    },
    {
      "constant": false,
      "inputs": [
        {
          "name": "_proposedImpl",
          "type": "address"
        }
      ],
      "name": "confirmImplChange",
      "outputs": [],
      "payable": false,
      "stateMutability": "nonpayable",
      "type": "function"
    },
    {
      "constant": true,
      "inputs": [],
      "name": "getGuardian",
      "outputs": [
        {
          "name": "",
          "type": "address"
        }
      ],
      "payable": false,
      "stateMutability": "view",
      "type": "function"
    },
    {
      "constant": true,
      "inputs": [],
      "name": "getPermImpl",
      "outputs": [
        {
          "name": "",
          "type": "address"
        }
      ],
      "payable": false,
      "stateMutability": "view",
      "type": "function"
    },
    {
      "constant": true,
      "inputs": [],
      "name": "getPermInterface",
      "outputs": [
        {
          "name": "",
          "type": "address"
        }
      ],
      "payable": false,
      "stateMutability": "view",
      "type": "function"
    }
  ],
  "bytecode": "0x608060405234801561001057600080fd5b50604051602080610c838339810180604052602081101561003057600080fd5b8101908080519060200190929190505050806000806101000a81548173ffffffffffffffffffffffffffffffffffffffff021916908373ffffffffffffffffffffffffffffffffffffffff1602179055506000600260146101000a81548160ff02191690831515021790555050610bd7806100ac6000396000f3fe608060405234801561001057600080fd5b506004361061007f576000357c0100000000000000000000000000000000000000000000000000000000900480630e32cf901461008457806322bcb39a146100ce5780632fcb4f0414610112578063a75b87d214610156578063e572515c146101a0578063f09a4016146101ea575b600080fd5b61008c61024e565b604051808273ffffffffffffffffffffffffffffffffffffffff1673ffffffffffffffffffffffffffffffffffffffff16815260200191505060405180910390f35b610110600480360360208110156100e457600080fd5b81019080803573ffffffffffffffffffffffffffffffffffffffff169060200190929190505050610278565b005b6101546004803603602081101561012857600080fd5b81019080803573ffffffffffffffffffffffffffffffffffffffff16906020019092919050505061058b565b005b61015e610692565b604051808273ffffffffffffffffffffffffffffffffffffffff1673ffffffffffffffffffffffffffffffffffffffff16815260200191505060405180910390f35b6101a86106bb565b604051808273ffffffffffffffffffffffffffffffffffffffff1673ffffffffffffffffffffffffffffffffffffffff16815260200191505060405180910390f35b61024c6004803603604081101561020057600080fd5b81019080803573ffffffffffffffffffffffffffffffffffffffff169060200190929190803573ffffffffffffffffffffffffffffffffffffffff1690602001909291905050506106e5565b005b6000600160009054906101000a900473ffffffffffffffffffffffffffffffffffffffff16905090565b6000809054906101000a900473ffffffffffffffffffffffffffffffffffffffff1673ffffffffffffffffffffffffffffffffffffffff163373ffffffffffffffffffffffffffffffffffffffff1614151561033c576040517f08c379a000000000000000000000000000000000000000000000000000000000815260040180806020018281038252600e8152602001807f696e76616c69642063616c6c657200000000000000000000000000000000000081525060200191505060405180910390fd5b60608060606000600160009054906101000a900473ffffffffffffffffffffffffffffffffffffffff1673ffffffffffffffffffffffffffffffffffffffff1663cc9ba6fa6040518163ffffffff167c010000000000000000000000000000000000000000000000000000000002815260040160006040518083038186803b1580156103c757600080fd5b505afa1580156103db573d6000803e3d6000fd5b505050506040513d6000823e3d601f19601f82011682018060405250608081101561040557600080fd5b81019080805164010000000081111561041d57600080fd5b8281019050602081018481111561043357600080fd5b815185600182028301116401000000008211171561045057600080fd5b5050929190602001805164010000000081111561046c57600080fd5b8281019050602081018481111561048257600080fd5b815185600182028301116401000000008211171561049f57600080fd5b505092919060200180516401000000008111156104bb57600080fd5b828101905060208101848111156104d157600080fd5b81518560018202830111640100000000821117156104ee57600080fd5b505092919060200180519060200190929190505050935093509350935061051885858585856108fa565b84600160006101000a81548173ffffffffffffffffffffffffffffffffffffffff021916908373ffffffffffffffffffffffffffffffffffffffff160217905550610584600160009054906101000a900473ffffffffffffffffffffffffffffffffffffffff16610ad3565b5050505050565b6000809054906101000a900473ffffffffffffffffffffffffffffffffffffffff1673ffffffffffffffffffffffffffffffffffffffff163373ffffffffffffffffffffffffffffffffffffffff1614151561064f576040517f08c379a000000000000000000000000000000000000000000000000000000000815260040180806020018281038252600e8152602001807f696e76616c69642063616c6c657200000000000000000000000000000000000081525060200191505060405180910390fd5b806000806101000a81548173ffffffffffffffffffffffffffffffffffffffff021916908373ffffffffffffffffffffffffffffffffffffffff16021790555050565b60008060009054906101000a900473ffffffffffffffffffffffffffffffffffffffff16905090565b6000600260009054906101000a900473ffffffffffffffffffffffffffffffffffffffff16905090565b6000809054906101000a900473ffffffffffffffffffffffffffffffffffffffff1673ffffffffffffffffffffffffffffffffffffffff163373ffffffffffffffffffffffffffffffffffffffff161415156107a9576040517f08c379a000000000000000000000000000000000000000000000000000000000815260040180806020018281038252600e8152602001807f696e76616c69642063616c6c657200000000000000000000000000000000000081525060200191505060405180910390fd5b600260149054906101000a900460ff1615151561082e576040517f08c379a00000000000000000000000000000000000000000000000000000000081526004018080602001828103825260198152602001807f63616e206265206578656375746564206f6e6c79206f6e63650000000000000081525060200191505060405180910390fd5b80600160006101000a81548173ffffffffffffffffffffffffffffffffffffffff021916908373ffffffffffffffffffffffffffffffffffffffff16021790555081600260006101000a81548173ffffffffffffffffffffffffffffffffffffffff021916908373ffffffffffffffffffffffffffffffffffffffff1602179055506108db600160009054906101000a900473ffffffffffffffffffffffffffffffffffffffff16610ad3565b6001600260146101000a81548160ff0219169083151502179055505050565b8473ffffffffffffffffffffffffffffffffffffffff1663f5ad584a858585856040518563ffffffff167c01000000000000000000000000000000000000000000000000000000000281526004018080602001806020018060200185151515158152602001848103845288818151815260200191508051906020019080838360005b8381101561099757808201518184015260208101905061097c565b50505050905090810190601f1680156109c45780820380516001836020036101000a031916815260200191505b50848103835287818151815260200191508051906020019080838360005b838110156109fd5780820151818401526020810190506109e2565b50505050905090810190601f168015610a2a5780820380516001836020036101000a031916815260200191505b50848103825286818151815260200191508051906020019080838360005b83811015610a63578082015181840152602081019050610a48565b50505050905090810190601f168015610a905780820380516001836020036101000a031916815260200191505b50975050505050505050600060405180830381600087803b158015610ab457600080fd5b505af1158015610ac8573d6000803e3d6000fd5b505050505050505050565b600260009054906101000a900473ffffffffffffffffffffffffffffffffffffffff1673ffffffffffffffffffffffffffffffffffffffff1663511bbd9f826040518263ffffffff167c0100000000000000000000000000000000000000000000000000000000028152600401808273ffffffffffffffffffffffffffffffffffffffff1673ffffffffffffffffffffffffffffffffffffffff168152602001915050600060405180830381600087803b158015610b9057600080fd5b505af1158015610ba4573d6000803e3d6000fd5b505050505056fea165627a7a723058204325faaf863560198176bf70334270e778fffa8eaba4da57afcc3b3a2d060d630029",
  "source": "pragma solidity ^0.5.3;\n\nimport \"./PermissionsInterface.sol\";\n\n/** @title Permissions Upgradable Contract\n  * @notice This contract holds the address of current permissions implementation\n    contract. The contract is owned by a guardian account. Only the\n    guardian account can change the implementation contract address as\n    business needs.\n  */\ncontract PermissionsUpgradable {\n    address private guardian;\n    address private permImpl;\n    address private permInterface;\n    // initDone ensures that init can be called only once\n    bool private initDone;\n\n    /** @notice constructor\n     * @param _guardian account address\n     */\n    constructor(address _guardian) public {\n        guardian = _guardian;\n        initDone = false;\n    }\n\n    /** @notice confirms that the caller is the guardian account\n     */\n    modifier onlyGuardian() {\n        require(msg.sender == guardian, \"invalid caller\");\n        _;\n    }\n\n    /** @notice executed by guardian. Links interface and implementation contract\n        addresses. Can be executed by guardian account only\n      * @param _permInterface permissions interface contract address\n      * @param _permImpl implementation contract address\n      */\n    function init(\n        address _permInterface,\n        address _permImpl\n    ) external onlyGuardian {\n        require(!initDone, \"can be executed only once\");\n        permImpl = _permImpl;\n        permInterface = _permInterface;\n        _setImpl(permImpl);\n        initDone = true;\n    }\n\n    /** @notice executed by guardian. Changes ownership of guardian to nominated address\n     * @param _updatedGuardian nominated address for new guardian\n     */\n\n    function changeGuardian(address _updatedGuardian) public onlyGuardian {\n        guardian = _updatedGuardian;\n    }\n\n    /** @notice changes the implementation contract address to the new address\n        address passed. Can be executed by guardian account only\n      * @param _proposedImpl address of the new permissions implementation contract\n      */\n    function confirmImplChange(address _proposedImpl) public onlyGuardian {\n        // The policy details needs to be carried forward from existing\n        // implementation to new. So first these are read from existing\n        // implementation and then updated in new implementation\n        (\n            string memory adminOrg,\n            string memory adminRole,\n            string memory orgAdminRole,\n            bool bootStatus\n        ) = PermissionsImplementation(permImpl).getPolicyDetails();\n        _setPolicy(\n            _proposedImpl,\n            adminOrg,\n            adminRole,\n            orgAdminRole,\n            bootStatus\n        );\n        permImpl = _proposedImpl;\n        _setImpl(permImpl);\n    }\n\n    /** @notice function to fetch the guardian account address\n     * @return _guardian guardian account address\n     */\n    function getGuardian() public view returns (address) {\n        return guardian;\n    }\n\n    /** @notice function to fetch the current implementation address\n     * @return permissions implementation contract address\n     */\n    function getPermImpl() public view returns (address) {\n        return permImpl;\n    }\n\n    /** @notice function to fetch the interface address\n     * @return permissions interface contract address\n     */\n    function getPermInterface() public view returns (address) {\n        return permInterface;\n    }\n\n    /** @notice function to set the permissions policy details in the\n        permissions implementation contract\n      * @param _permImpl permissions implementation contract address\n      * @param _adminOrg name of admin organization\n      * @param _adminRole name of the admin role\n      * @param _orgAdminRole name of default organization admin role\n      * @param _bootStatus network boot status\n      */\n    function _setPolicy(\n        address _permImpl,\n        string memory _adminOrg,\n        string memory _adminRole,\n        string memory _orgAdminRole,\n        bool _bootStatus\n    ) private {\n        PermissionsImplementation(_permImpl).setMigrationPolicy(\n            _adminOrg,\n            _adminRole,\n            _orgAdminRole,\n            _bootStatus\n        );\n    }\n\n    /** @notice function to set the permissions implementation contract address\n        in the permissions interface contract\n      * @param _permImpl permissions implementation contract address\n      */\n    function _setImpl(address _permImpl) private {\n        PermissionsInterface(permInterface).setPermImplementation(_permImpl);\n    }\n}\n",
  "sourcePath": "/Users/zeus/code/goquorum-ansible/permissionsContracts/contracts/PermissionsUpgradable.sol",
  "compiler": {
    "name": "solc",
    "version": "0.5.3+commit.10d17f24.Emscripten.clang"
  },
  "schemaVersion": "3.4.14",
  "updatedAt": "2024-07-03T12:35:25.069Z",
  "networkType": "ethereum",
  "devdoc": {
    "methods": {
      "changeGuardian(address)": {
        "params": {
          "_updatedGuardian": "nominated address for new guardian"
        }
      },
      "confirmImplChange(address)": {
        "params": {
          "_proposedImpl": "address of the new permissions implementation contract"
        }
      },
      "constructor": {
        "params": {
          "_guardian": "account address"
        }
      },
      "getGuardian()": {
        "return": "_guardian guardian account address"
      },
      "getPermImpl()": {
        "return": "permissions implementation contract address"
      },
      "getPermInterface()": {
        "return": "permissions interface contract address"
      },
      "init(address,address)": {
        "params": {
          "_permImpl": "implementation contract address",
          "_permInterface": "permissions interface contract address"
        }
      }
    },
    "title": "Permissions Upgradable Contract"
  },
  "userdoc": {
    "methods": {
      "changeGuardian(address)": {
        "notice": "executed by guardian. Changes ownership of guardian to nominated address"
      },
      "confirmImplChange(address)": {
        "notice": "changes the implementation contract address to the new address address passed. Can be executed by guardian account only"
      },
      "constructor": "constructor",
      "getGuardian()": {
        "notice": "function to fetch the guardian account address"
      },
      "getPermImpl()": {
        "notice": "function to fetch the current implementation address"
      },
      "getPermInterface()": {
        "notice": "function to fetch the interface address"
      },
      "init(address,address)": {
        "notice": "executed by guardian. Links interface and implementation contract addresses. Can be executed by guardian account only"
      }
    },
    "notice": "This contract holds the address of current permissions implementation contract. The contract is owned by a guardian account. Only the guardian account can change the implementation contract address as business needs."
  }
}